{
  "_format": "hh-sol-artifact-1",
  "contractName": "Voting",
  "sourceName": "contracts/Voting.sol",
  "abi": [
    {
      "inputs": [],
      "stateMutability": "nonpayable",
      "type": "constructor"
    },
    {
      "inputs": [
        {
          "internalType": "string",
          "name": "_runner",
          "type": "string"
        }
      ],
      "name": "addCandidate",
      "outputs": [],
      "stateMutability": "nonpayable",
      "type": "function"
    },
    {
      "inputs": [
        {
          "internalType": "string",
          "name": "_runner",
          "type": "string"
        }
      ],
      "name": "getCandidateVotes",
      "outputs": [
        {
          "internalType": "uint256",
          "name": "",
          "type": "uint256"
        }
      ],
      "stateMutability": "view",
      "type": "function"
    },
    {
      "inputs": [
        {
          "internalType": "uint256",
          "name": "",
          "type": "uint256"
        }
      ],
      "name": "runners",
      "outputs": [
        {
          "internalType": "string",
          "name": "",
          "type": "string"
        }
      ],
      "stateMutability": "view",
      "type": "function"
    },
    {
      "inputs": [
        {
          "internalType": "string",
          "name": "_runner",
          "type": "string"
        }
      ],
      "name": "vote",
      "outputs": [],
      "stateMutability": "nonpayable",
      "type": "function"
    }
  ],
  "bytecode": "0x6080604052348015600f57600080fd5b50610ae98061001f6000396000f3fe608060405234801561001057600080fd5b506004361061004c5760003560e01c8063462e91ec1461005157806347e9907b1461006d578063e962414f1461009d578063fc36e15b146100cd575b600080fd5b61006b6004803603810190610066919061045f565b6100e9565b005b610087600480360381019061008291906104de565b610121565b604051610094919061058a565b60405180910390f35b6100b760048036038101906100b2919061045f565b6101cd565b6040516100c491906105bb565b60405180910390f35b6100e760048036038101906100e2919061045f565b6101f5565b005b60008190806001815401808255809150506001900390600052602060002001600090919091909150908161011d91906107e2565b5050565b6000818154811061013157600080fd5b90600052602060002001600091509050805461014c90610605565b80601f016020809104026020016040519081016040528092919081815260200182805461017890610605565b80156101c55780601f1061019a576101008083540402835291602001916101c5565b820191906000526020600020905b8154815290600101906020018083116101a857829003601f168201915b505050505081565b60006001826040516101df91906108f0565b9081526020016040518091039020549050919050565b6000805b60008054905081101561028c578260405160200161021791906108f0565b604051602081830303815290604052805190602001206000828154811061024157610240610907565b5b9060005260206000200160405160200161025b91906109b9565b604051602081830303815290604052805190602001200361027f576001915061028c565b80806001019150506101f9565b50806102cd576040517f08c379a00000000000000000000000000000000000000000000000000000000081526004016102c490610a1c565b60405180910390fd5b6001826040516102dd91906108f0565b908152602001604051809103902060008154809291906102fc90610a6b565b91905055505050565b6000604051905090565b600080fd5b600080fd5b600080fd5b600080fd5b6000601f19601f8301169050919050565b7f4e487b7100000000000000000000000000000000000000000000000000000000600052604160045260246000fd5b61036c82610323565b810181811067ffffffffffffffff8211171561038b5761038a610334565b5b80604052505050565b600061039e610305565b90506103aa8282610363565b919050565b600067ffffffffffffffff8211156103ca576103c9610334565b5b6103d382610323565b9050602081019050919050565b82818337600083830152505050565b60006104026103fd846103af565b610394565b90508281526020810184848401111561041e5761041d61031e565b5b6104298482856103e0565b509392505050565b600082601f83011261044657610445610319565b5b81356104568482602086016103ef565b91505092915050565b6000602082840312156104755761047461030f565b5b600082013567ffffffffffffffff81111561049357610492610314565b5b61049f84828501610431565b91505092915050565b6000819050919050565b6104bb816104a8565b81146104c657600080fd5b50565b6000813590506104d8816104b2565b92915050565b6000602082840312156104f4576104f361030f565b5b6000610502848285016104c9565b91505092915050565b600081519050919050565b600082825260208201905092915050565b60005b8381101561054557808201518184015260208101905061052a565b60008484015250505050565b600061055c8261050b565b6105668185610516565b9350610576818560208601610527565b61057f81610323565b840191505092915050565b600060208201905081810360008301526105a48184610551565b905092915050565b6105b5816104a8565b82525050565b60006020820190506105d060008301846105ac565b92915050565b7f4e487b7100000000000000000000000000000000000000000000000000000000600052602260045260246000fd5b6000600282049050600182168061061d57607f821691505b6020821081036106305761062f6105d6565b5b50919050565b60008190508160005260206000209050919050565b60006020601f8301049050919050565b600082821b905092915050565b6000600883026106987fffffffffffffffffffffffffffffffffffffffffffffffffffffffffffffffff8261065b565b6106a2868361065b565b95508019841693508086168417925050509392505050565b6000819050919050565b60006106df6106da6106d5846104a8565b6106ba565b6104a8565b9050919050565b6000819050919050565b6106f9836106c4565b61070d610705826106e6565b848454610668565b825550505050565b600090565b610722610715565b61072d8184846106f0565b505050565b5b818110156107515761074660008261071a565b600181019050610733565b5050565b601f8211156107965761076781610636565b6107708461064b565b8101602085101561077f578190505b61079361078b8561064b565b830182610732565b50505b505050565b600082821c905092915050565b60006107b96000198460080261079b565b1980831691505092915050565b60006107d283836107a8565b9150826002028217905092915050565b6107eb8261050b565b67ffffffffffffffff81111561080457610803610334565b5b61080e8254610605565b610819828285610755565b600060209050601f83116001811461084c576000841561083a578287015190505b61084485826107c6565b8655506108ac565b601f19841661085a86610636565b60005b828110156108825784890151825560018201915060208501945060208101905061085d565b8683101561089f578489015161089b601f8916826107a8565b8355505b6001600288020188555050505b505050505050565b600081905092915050565b60006108ca8261050b565b6108d481856108b4565b93506108e4818560208601610527565b80840191505092915050565b60006108fc82846108bf565b915081905092915050565b7f4e487b7100000000000000000000000000000000000000000000000000000000600052603260045260246000fd5b6000815461094381610605565b61094d81866108b4565b94506001821660008114610968576001811461097d576109b0565b60ff19831686528115158202860193506109b0565b61098685610636565b60005b838110156109a857815481890152600182019150602081019050610989565b838801955050505b50505092915050565b60006109c58284610936565b915081905092915050565b7f63616e64696461746520646f6573206e6f742065786973740000000000000000600082015250565b6000610a06601883610516565b9150610a11826109d0565b602082019050919050565b60006020820190508181036000830152610a35816109f9565b9050919050565b7f4e487b7100000000000000000000000000000000000000000000000000000000600052601160045260246000fd5b6000610a76826104a8565b91507fffffffffffffffffffffffffffffffffffffffffffffffffffffffffffffffff8203610aa857610aa7610a3c565b5b60018201905091905056fea2646970667358221220d4ce9136d919308f5ae25d356eee8f03f79c30ebbee92559875510926d02c18864736f6c634300081b0033",
  "linkReferences": {},
  "deployedLinkReferences": {}
}